{
  "address": "0x417644ab2B0AF61ebb6F5856bd81830c2f261e66",
  "abi": [
    {
      "inputs": [
        {
          "internalType": "address",
          "name": "_brevisRequest",
          "type": "address"
        }
      ],
      "stateMutability": "nonpayable",
      "type": "constructor"
    },
    {
      "inputs": [
        {
          "internalType": "address",
          "name": "owner",
          "type": "address"
        }
      ],
      "name": "OwnableInvalidOwner",
      "type": "error"
    },
    {
      "inputs": [
        {
          "internalType": "address",
          "name": "account",
          "type": "address"
        }
      ],
      "name": "OwnableUnauthorizedAccount",
      "type": "error"
    },
    {
      "anonymous": false,
      "inputs": [
        {
          "indexed": true,
          "internalType": "address",
          "name": "previousOwner",
          "type": "address"
        },
        {
          "indexed": true,
          "internalType": "address",
          "name": "newOwner",
          "type": "address"
        }
      ],
      "name": "OwnershipTransferred",
      "type": "event"
    },
    {
      "anonymous": false,
      "inputs": [
        {
          "indexed": false,
          "internalType": "address",
          "name": "account",
          "type": "address"
        },
        {
          "indexed": false,
          "internalType": "uint64",
          "name": "startBlockNum",
          "type": "uint64"
        },
        {
          "indexed": false,
          "internalType": "uint64",
          "name": "endBlockNum",
          "type": "uint64"
        },
        {
          "indexed": false,
          "internalType": "uint248",
          "name": "liquidity",
          "type": "uint248"
        }
      ],
      "name": "TimeWeightedLiquidityAttested",
      "type": "event"
    },
    {
      "inputs": [
        {
          "internalType": "bytes32[]",
          "name": "_appVkHashes",
          "type": "bytes32[]"
        },
        {
          "internalType": "bytes[]",
          "name": "_appCircuitOutputs",
          "type": "bytes[]"
        }
      ],
      "name": "brevisBatchCallback",
      "outputs": [],
      "stateMutability": "nonpayable",
      "type": "function"
    },
    {
      "inputs": [
        {
          "internalType": "bytes32",
          "name": "_appVkHash",
          "type": "bytes32"
        },
        {
          "internalType": "bytes",
          "name": "_appCircuitOutput",
          "type": "bytes"
        }
      ],
      "name": "brevisCallback",
      "outputs": [],
      "stateMutability": "nonpayable",
      "type": "function"
    },
    {
      "inputs": [],
      "name": "brevisRequest",
      "outputs": [
        {
          "internalType": "address",
          "name": "",
          "type": "address"
        }
      ],
      "stateMutability": "view",
      "type": "function"
    },
    {
      "inputs": [],
      "name": "owner",
      "outputs": [
        {
          "internalType": "address",
          "name": "",
          "type": "address"
        }
      ],
      "stateMutability": "view",
      "type": "function"
    },
    {
      "inputs": [],
      "name": "renounceOwnership",
      "outputs": [],
      "stateMutability": "nonpayable",
      "type": "function"
    },
    {
      "inputs": [
        {
          "internalType": "bytes32",
          "name": "_vkHash",
          "type": "bytes32"
        }
      ],
      "name": "setVkHash",
      "outputs": [],
      "stateMutability": "nonpayable",
      "type": "function"
    },
    {
      "inputs": [
        {
          "internalType": "address",
          "name": "newOwner",
          "type": "address"
        }
      ],
      "name": "transferOwnership",
      "outputs": [],
      "stateMutability": "nonpayable",
      "type": "function"
    },
    {
      "inputs": [],
      "name": "vkHash",
      "outputs": [
        {
          "internalType": "bytes32",
          "name": "",
          "type": "bytes32"
        }
      ],
      "stateMutability": "view",
      "type": "function"
    }
  ],
  "transactionHash": "0xf7462b68ce6e60ef88a2c5ef8a5db1e5dac70885e4213a3991298b57f7ada68a",
  "args": [
    "0x841ce48f9446c8e281d3f1444cb859b4a6d0738c"
  ],
  "numDeployments": 1,
  "solcInputHash": "9d31bfb7266e6ed20066d7535023579a",
  "bytecode": "0x6080346100cb57601f61060938819003918201601f19168301916001600160401b038311848410176100d0578084926020946040528339810103126100cb57516001600160a01b0390818116908190036100cb57600080546001600160a01b0319908116909217905533156100b257600154903390821617600155604051913391167f8be0079c531659141344cd1fd0a4f28419497f9722a3daafe3b4186f6b6457e0600080a361052290816100e78239f35b604051631e4fbdf760e01b815260006004820152602490fd5b600080fd5b634e487b7160e01b600052604160045260246000fdfe608060408181526004908136101561001657600080fd5b600092833560e01c90816338931a3114610354575080633bca02fc146102625780634fe840f514610243578063715018a6146101d85780637859f6d9146101b657806379d6b6a2146101455780638da5cb5b146101195763f2fde38b1461007c57600080fd5b34610115576020366003190112610115578135916001600160a01b0391828416809403610111576100ab6103ad565b83156100fb5750506001548273ffffffffffffffffffffffffffffffffffffffff19821617600155167f8be0079c531659141344cd1fd0a4f28419497f9722a3daafe3b4186f6b6457e08380a380f35b51631e4fbdf760e01b8152908101849052602490fd5b8480fd5b8280fd5b8382346101415781600319360112610141576020906001600160a01b03600154169051908152f35b5080fd5b503461011557366003190112610141576024359067ffffffffffffffff908183116101b257366023840112156101b257828101359182116101b25736602483850101116101b25760246101af936101a76001600160a01b0387541633146103d9565b019035610425565b80f35b8380fd5b505034610141576020366003190112610141576101d16103ad565b3560025580f35b83346102405780600319360112610240576101f16103ad565b806001600160a01b0360015473ffffffffffffffffffffffffffffffffffffffff198116600155167f8be0079c531659141344cd1fd0a4f28419497f9722a3daafe3b4186f6b6457e08280a380f35b80fd5b8382346101415781600319360112610141576020906002549051908152f35b5034610115573660031901126101415767ffffffffffffffff9080358281116101b2576102929036908301610377565b9190926024938435828111610350576102ae9036908501610377565b906102c46001600160a01b0389541633146103d9565b875b8681106102d1578880f35b8060051b8382101561033e5780830135601e198436030181121561033a5783018035908782116103365760200181360381136103365761031392870135610425565b6000198114610324576001016102c6565b634e487b7160e01b8952601186528789fd5b8b80fd5b8a80fd5b634e487b7160e01b8a5260328752888afd5b8680fd5b8490346101415781600319360112610141576001600160a01b0360209254168152f35b9181601f840112156103a85782359167ffffffffffffffff83116103a8576020808501948460051b0101116103a857565b600080fd5b6001600160a01b036001541633036103c157565b60405163118cdaa760e01b8152336004820152602490fd5b156103e057565b60405162461bcd60e51b815260206004820152600e60248201527f696e76616c69642063616c6c65720000000000000000000000000000000000006044820152606490fd5b919091600254036104a757806014116103a85780601c116103a857806024116103a8576043116103a85760807fb14fa6f38620446aff4a742ff8dd639f8685ecc46db856300075cb8aaa6a225391602460405191803560601c8352601481013560c01c6020840152601c81013560c01c6040840152013560081c6060820152a1565b60405162461bcd60e51b815260206004820152600a60248201527f696e76616c696420766b000000000000000000000000000000000000000000006044820152606490fdfea264697066735822122062becb6f963d24b0644ba1a9e79d0bf856d62961f01de5345ad2891daf224fc064736f6c63430008140033",
  "devdoc": {
    "errors": {
      "OwnableInvalidOwner(address)": [
        {
          "details": "The owner is not a valid owner account. (eg. `address(0)`)"
        }
      ],
      "OwnableUnauthorizedAccount(address)": [
        {
          "details": "The caller account is not authorized to perform an operation."
        }
      ]
    },
    "kind": "dev",
    "methods": {
      "owner()": {
        "details": "Returns the address of the current owner."
      },
      "renounceOwnership()": {
        "details": "Leaves the contract without owner. It will not be possible to call `onlyOwner` functions. Can only be called by the current owner. NOTE: Renouncing ownership will leave the contract without an owner, thereby disabling any functionality that is only available to the owner."
      },
      "transferOwnership(address)": {
        "details": "Transfers ownership of the contract to a new account (`newOwner`). Can only be called by the current owner."
      }
    },
    "version": 1
  },
  "userdoc": {
    "kind": "user",
    "methods": {},
    "version": 1
  },
  "storageLayout": {
    "storage": [
      {
        "astId": 334,
        "contract": "contracts/TimeWeightedLiquidity.sol:TimeWeightedLiquidity",
        "label": "brevisRequest",
        "offset": 0,
        "slot": "0",
        "type": "t_address"
      },
      {
        "astId": 8,
        "contract": "contracts/TimeWeightedLiquidity.sol:TimeWeightedLiquidity",
        "label": "_owner",
        "offset": 0,
        "slot": "1",
        "type": "t_address"
      },
      {
        "astId": 197,
        "contract": "contracts/TimeWeightedLiquidity.sol:TimeWeightedLiquidity",
        "label": "vkHash",
        "offset": 0,
        "slot": "2",
        "type": "t_bytes32"
      }
    ],
    "types": {
      "t_address": {
        "encoding": "inplace",
        "label": "address",
        "numberOfBytes": "20"
      },
      "t_bytes32": {
        "encoding": "inplace",
        "label": "bytes32",
        "numberOfBytes": "32"
      }
    }
  }
}