{
  "address": "0xEEc66d9B615ff84909Be1CB1fE633cC26150417D",
  "abi": [
    {
      "inputs": [
        {
          "internalType": "address",
          "name": "_brevisRequest",
          "type": "address"
        }
      ],
      "stateMutability": "nonpayable",
      "type": "constructor"
    },
    {
      "inputs": [
        {
          "internalType": "address",
          "name": "owner",
          "type": "address"
        }
      ],
      "name": "OwnableInvalidOwner",
      "type": "error"
    },
    {
      "inputs": [
        {
          "internalType": "address",
          "name": "account",
          "type": "address"
        }
      ],
      "name": "OwnableUnauthorizedAccount",
      "type": "error"
    },
    {
      "anonymous": false,
      "inputs": [
        {
          "indexed": false,
          "internalType": "address",
          "name": "account",
          "type": "address"
        },
        {
          "indexed": false,
          "internalType": "uint64",
          "name": "blockNum",
          "type": "uint64"
        }
      ],
      "name": "AccountAgeAttested",
      "type": "event"
    },
    {
      "anonymous": false,
      "inputs": [
        {
          "indexed": true,
          "internalType": "address",
          "name": "previousOwner",
          "type": "address"
        },
        {
          "indexed": true,
          "internalType": "address",
          "name": "newOwner",
          "type": "address"
        }
      ],
      "name": "OwnershipTransferred",
      "type": "event"
    },
    {
      "inputs": [
        {
          "internalType": "bytes32",
          "name": "_proofId",
          "type": "bytes32"
        },
        {
          "internalType": "uint64",
          "name": "_nonce",
          "type": "uint64"
        },
        {
          "internalType": "bytes32",
          "name": "_appVkHash",
          "type": "bytes32"
        },
        {
          "internalType": "bytes32",
          "name": "_appCommitHash",
          "type": "bytes32"
        },
        {
          "internalType": "bytes",
          "name": "_appCircuitOutput",
          "type": "bytes"
        }
      ],
      "name": "applyBrevisOpResult",
      "outputs": [],
      "stateMutability": "nonpayable",
      "type": "function"
    },
    {
      "inputs": [
        {
          "internalType": "bytes32[]",
          "name": "_proofIds",
          "type": "bytes32[]"
        },
        {
          "internalType": "uint64[]",
          "name": "_nonces",
          "type": "uint64[]"
        },
        {
          "internalType": "bytes32[]",
          "name": "_appVkHashes",
          "type": "bytes32[]"
        },
        {
          "internalType": "bytes32[]",
          "name": "_appCommitHashes",
          "type": "bytes32[]"
        },
        {
          "internalType": "bytes[]",
          "name": "_appCircuitOutputs",
          "type": "bytes[]"
        }
      ],
      "name": "applyBrevisOpResults",
      "outputs": [],
      "stateMutability": "nonpayable",
      "type": "function"
    },
    {
      "inputs": [
        {
          "internalType": "bytes32[]",
          "name": "_appVkHashes",
          "type": "bytes32[]"
        },
        {
          "internalType": "bytes[]",
          "name": "_appCircuitOutputs",
          "type": "bytes[]"
        }
      ],
      "name": "brevisBatchCallback",
      "outputs": [],
      "stateMutability": "nonpayable",
      "type": "function"
    },
    {
      "inputs": [
        {
          "internalType": "bytes32",
          "name": "_appVkHash",
          "type": "bytes32"
        },
        {
          "internalType": "bytes",
          "name": "_appCircuitOutput",
          "type": "bytes"
        }
      ],
      "name": "brevisCallback",
      "outputs": [],
      "stateMutability": "nonpayable",
      "type": "function"
    },
    {
      "inputs": [],
      "name": "brevisOpConfig",
      "outputs": [
        {
          "internalType": "uint64",
          "name": "challengeWindow",
          "type": "uint64"
        },
        {
          "internalType": "uint8",
          "name": "sigOption",
          "type": "uint8"
        }
      ],
      "stateMutability": "view",
      "type": "function"
    },
    {
      "inputs": [],
      "name": "brevisRequest",
      "outputs": [
        {
          "internalType": "address",
          "name": "",
          "type": "address"
        }
      ],
      "stateMutability": "view",
      "type": "function"
    },
    {
      "inputs": [],
      "name": "owner",
      "outputs": [
        {
          "internalType": "address",
          "name": "",
          "type": "address"
        }
      ],
      "stateMutability": "view",
      "type": "function"
    },
    {
      "inputs": [],
      "name": "renounceOwnership",
      "outputs": [],
      "stateMutability": "nonpayable",
      "type": "function"
    },
    {
      "inputs": [
        {
          "internalType": "uint64",
          "name": "_challengeWindow",
          "type": "uint64"
        },
        {
          "internalType": "uint8",
          "name": "_sigOption",
          "type": "uint8"
        }
      ],
      "name": "setBrevisOpConfig",
      "outputs": [],
      "stateMutability": "nonpayable",
      "type": "function"
    },
    {
      "inputs": [
        {
          "internalType": "bytes32",
          "name": "_vkHash",
          "type": "bytes32"
        }
      ],
      "name": "setVkHash",
      "outputs": [],
      "stateMutability": "nonpayable",
      "type": "function"
    },
    {
      "inputs": [
        {
          "internalType": "address",
          "name": "newOwner",
          "type": "address"
        }
      ],
      "name": "transferOwnership",
      "outputs": [],
      "stateMutability": "nonpayable",
      "type": "function"
    },
    {
      "inputs": [],
      "name": "vkHash",
      "outputs": [
        {
          "internalType": "bytes32",
          "name": "",
          "type": "bytes32"
        }
      ],
      "stateMutability": "view",
      "type": "function"
    }
  ],
  "transactionHash": "0xc6f6d48c77a83cac751c1e98089ff14bb268b056f02514819eef98b0114ddd64",
  "args": [
    "0xF7E9CB6b7A157c14BCB6E6bcf63c1C7c92E952f5"
  ],
  "numDeployments": 2,
  "solcInputHash": "1e6a637ad28d20120803c131e05d43f8",
  "bytecode": "0x60803461011d576001600160401b0390601f610c1a38819003918201601f191683019291908484118385101761010757816020928492604096875283398101031261011d57516001600160a01b0392838216929183900361011d578151828101908082108383111761010757908352908152600160209190910181905280546001600160481b0319166001600160411b03179055600080546001600160a01b0319908116909317905533156100f05760025491339083161760025551913391167f8be0079c531659141344cd1fd0a4f28419497f9722a3daafe3b4186f6b6457e0600080a3610af790816101238239f35b51631e4fbdf760e01b815260006004820152602490fd5b634e487b7160e01b600052604160045260246000fd5b600080fdfe608060405260048036101561001357600080fd5b600090813560e01c806303e6634214610696578063348016571461047757806338931a31146104515780633bca02fc146103b15780634fe840f514610393578063715018a61461032b578063718f6ccd146102165780637859f6d9146101f557806379d6b6a21461019d5780638da5cb5b14610176578063c1bde0e1146101415763f2fde38b146100a357600080fd5b3461013d57602036600319011261013d578035906001600160a01b0390818316809303610139576100d2610767565b821561012157506002548273ffffffffffffffffffffffffffffffffffffffff19821617600255167f8be0079c531659141344cd1fd0a4f28419497f9722a3daafe3b4186f6b6457e08380a380f35b604051631e4fbdf760e01b8152908101849052602490fd5b8380fd5b5080fd5b8234610173578060031936011261017357604060015460ff82519167ffffffffffffffff81168352831c166020820152f35b80fd5b823461017357806003193601126101735760206001600160a01b0360025416604051908152f35b503461013d57604036600319011261013d576024359067ffffffffffffffff82116101f1576101d26101ee9236908301610739565b916101e86001600160a01b0386541633146107e7565b35610833565b80f35b8280fd5b503461013d57602036600319011261013d5761020f610767565b3560035580f35b503461013d5760a036600319011261013d5760243567ffffffffffffffff90818116809103610139576044356064356084359384116103275761025e60209436908701610739565b94909360c461026b610a90565b60ff6001600160a01b038c9b939b5416916040519b8c96879563054eee2f60e41b8752803590870152602486015288604486015289606486015260848501521660a48301525afa90811561031c576102d16102e9926101ee9789916102ee575b50610974565b6102dc3686866109c0565b6020815191012014610a07565b610833565b61030f915060203d8111610315575b61030781836107c5565b81019061095c565b386102cb565b503d6102fd565b6040513d88823e3d90fd5b8580fd5b8234610173578060031936011261017357610344610767565b806001600160a01b0360025473ffffffffffffffffffffffffffffffffffffffff198116600255167f8be0079c531659141344cd1fd0a4f28419497f9722a3daafe3b4186f6b6457e08280a380f35b82346101735780600319360112610173576020600354604051908152f35b503461013d57604036600319011261013d5767ffffffffffffffff8135818111610139576103e29036908401610703565b91909260243591821161044d576103fb91369101610703565b90916104126001600160a01b0386541633146107e7565b845b81811061041f578580f35b806104436104316104489385896108f4565b3561043d83878961091a565b91610833565b6108cf565b610414565b8480fd5b82346101735780600319360112610173576001600160a01b036020915416604051908152f35b503461013d5760a036600319011261013d5767ffffffffffffffff8135818111610139576104a89036908401610703565b9290602435838111610327576104c19036908401610703565b929091604435858111610692576104db9036908401610703565b9390928860643588811161013d576104f69036908401610703565b949093608435908a8211610139579886939a888a889c8f989695369088019061051e91610703565b9e909f610529610a90565b96909782546001600160a01b0316996040519d8e9c8d63a90f4bd760e01b90528d0160c0905260c48d019061055d92610a53565b8b81036003190160248d01528181526020019492915b818310610652575050505087959360ff936105a288979460209c6105b4956003198b84030160448c0152610a53565b87810360031901606489015291610a53565b9260848501521660a483015203915afa8015610647576105da918a9161062e5750610974565b875b8781106105e7578880f35b8061060f6105f96106299386866108f4565b356102dc610608848b8d61091a565b36916109c0565b61044361061d8288886108f4565b3561043d838a8c61091a565b6105dc565b61030f915060203d6020116103155761030781836107c5565b6040513d8b823e3d90fd5b95509550959799509597505084359082821680920361068c57602081600193829352019501930193898b9896948a98968f94958f96610573565b50508f80fd5b8780fd5b503461013d57604036600319011261013d573567ffffffffffffffff811680910361013d576024359060ff821682036101f1576106d1610767565b6106dc604051610793565b68ff00000000000000006001549260401b169168ffffffffffffffffff1916171760015580f35b9181601f840112156107345782359167ffffffffffffffff8311610734576020808501948460051b01011161073457565b600080fd5b9181601f840112156107345782359167ffffffffffffffff8311610734576020838186019501011161073457565b6001600160a01b0360025416330361077b57565b60405163118cdaa760e01b8152336004820152602490fd5b6040810190811067ffffffffffffffff8211176107af57604052565b634e487b7160e01b600052604160045260246000fd5b90601f8019910116810190811067ffffffffffffffff8211176107af57604052565b156107ee57565b60405162461bcd60e51b815260206004820152600e60248201527f696e76616c69642063616c6c65720000000000000000000000000000000000006044820152606490fd5b9190916003540361088a578060141161073457601c116107345760407f58f1d2ead829d16ffd37a8ca2f4a66f45a68b2e9f33272aa1f4d9621bdd7453c916014825191803560601c8352013560c01c6020820152a1565b60405162461bcd60e51b815260206004820152600a60248201527f696e76616c696420766b000000000000000000000000000000000000000000006044820152606490fd5b60001981146108de5760010190565b634e487b7160e01b600052601160045260246000fd5b91908110156109045760051b0190565b634e487b7160e01b600052603260045260246000fd5b91908110156109045760051b81013590601e198136030182121561073457019081359167ffffffffffffffff8311610734576020018236038113610734579190565b90816020910312610734575180151581036107345790565b1561097b57565b60405162461bcd60e51b815260206004820152601560248201527f64617461206e6f7420726561647920746f2075736500000000000000000000006044820152606490fd5b92919267ffffffffffffffff82116107af57604051916109ea601f8201601f1916602001846107c5565b829481845281830111610734578281602093846000960137010152565b15610a0e57565b60405162461bcd60e51b815260206004820152601660248201527f696e76616c69642063697263756974206f7574707574000000000000000000006044820152606490fd5b90918281527f07ffffffffffffffffffffffffffffffffffffffffffffffffffffffffffffff83116107345760209260051b809284830137010190565b602090604051610a9f81610793565b6001549060ff67ffffffffffffffff83169283835260401c169384910152919056fea2646970667358221220b732217218c91bd2c14c3155f774f034822453024b8034be9728c2b4add02b2064736f6c63430008140033",
  "devdoc": {
    "errors": {
      "OwnableInvalidOwner(address)": [
        {
          "details": "The owner is not a valid owner account. (eg. `address(0)`)"
        }
      ],
      "OwnableUnauthorizedAccount(address)": [
        {
          "details": "The caller account is not authorized to perform an operation."
        }
      ]
    },
    "kind": "dev",
    "methods": {
      "owner()": {
        "details": "Returns the address of the current owner."
      },
      "renounceOwnership()": {
        "details": "Leaves the contract without owner. It will not be possible to call `onlyOwner` functions. Can only be called by the current owner. NOTE: Renouncing ownership will leave the contract without an owner, thereby disabling any functionality that is only available to the owner."
      },
      "setBrevisOpConfig(uint64,uint8)": {
        "params": {
          "_challengeWindow": "The challenge window to accept optimistic result. 0: POS, maxInt: disable optimistic result",
          "_sigOption": "bitmap to express expected sigs: bit 0 is bvn, bit 1 is avs"
        }
      },
      "transferOwnership(address)": {
        "details": "Transfers ownership of the contract to a new account (`newOwner`). Can only be called by the current owner."
      }
    },
    "version": 1
  },
  "userdoc": {
    "kind": "user",
    "methods": {
      "setBrevisOpConfig(uint64,uint8)": {
        "notice": "config params to handle optimitic proof result"
      }
    },
    "version": 1
  },
  "storageLayout": {
    "storage": [
      {
        "astId": 435,
        "contract": "contracts/AccountAge.sol:AccountAge",
        "label": "brevisRequest",
        "offset": 0,
        "slot": "0",
        "type": "t_address"
      },
      {
        "astId": 451,
        "contract": "contracts/AccountAge.sol:AccountAge",
        "label": "brevisOpConfig",
        "offset": 0,
        "slot": "1",
        "type": "t_struct(BrevisOpConfig)440_storage"
      },
      {
        "astId": 8,
        "contract": "contracts/AccountAge.sol:AccountAge",
        "label": "_owner",
        "offset": 0,
        "slot": "2",
        "type": "t_address"
      },
      {
        "astId": 193,
        "contract": "contracts/AccountAge.sol:AccountAge",
        "label": "vkHash",
        "offset": 0,
        "slot": "3",
        "type": "t_bytes32"
      }
    ],
    "types": {
      "t_address": {
        "encoding": "inplace",
        "label": "address",
        "numberOfBytes": "20"
      },
      "t_bytes32": {
        "encoding": "inplace",
        "label": "bytes32",
        "numberOfBytes": "32"
      },
      "t_struct(BrevisOpConfig)440_storage": {
        "encoding": "inplace",
        "label": "struct BrevisApp.BrevisOpConfig",
        "members": [
          {
            "astId": 437,
            "contract": "contracts/AccountAge.sol:AccountAge",
            "label": "challengeWindow",
            "offset": 0,
            "slot": "0",
            "type": "t_uint64"
          },
          {
            "astId": 439,
            "contract": "contracts/AccountAge.sol:AccountAge",
            "label": "sigOption",
            "offset": 8,
            "slot": "0",
            "type": "t_uint8"
          }
        ],
        "numberOfBytes": "32"
      },
      "t_uint64": {
        "encoding": "inplace",
        "label": "uint64",
        "numberOfBytes": "8"
      },
      "t_uint8": {
        "encoding": "inplace",
        "label": "uint8",
        "numberOfBytes": "1"
      }
    }
  }
}